{
	"_format": "hh-sol-artifact-1",
	"contractName": "Greeter",
	"sourceName": "contracts/Mail.sol",
	"abi": [
		{
			"inputs": [],
			"stateMutability": "nonpayable",
			"type": "constructor"
		},
		{
			"anonymous": false,
			"inputs": [
				{
					"components": [
						{
							"internalType": "uint256",
							"name": "id",
							"type": "uint256"
						},
						{
							"components": [
								{
									"internalType": "uint256",
									"name": "id",
									"type": "uint256"
								},
								{
									"internalType": "address",
									"name": "from",
									"type": "address"
								},
								{
									"internalType": "address",
									"name": "to",
									"type": "address"
								},
								{
									"internalType": "string",
									"name": "messageHash",
									"type": "string"
								},
								{
									"internalType": "string",
									"name": "timestamp",
									"type": "string"
								}
							],
							"internalType": "struct Greeter.Message[]",
							"name": "messages",
							"type": "tuple[]"
						}
					],
					"indexed": false,
					"internalType": "struct Greeter.Mail",
					"name": "mail",
					"type": "tuple"
				}
			],
			"name": "MailEvent",
			"type": "event"
		},
		{
			"anonymous": false,
			"inputs": [
				{
					"components": [
						{
							"internalType": "uint256",
							"name": "id",
							"type": "uint256"
						},
						{
							"internalType": "address",
							"name": "from",
							"type": "address"
						},
						{
							"internalType": "address",
							"name": "to",
							"type": "address"
						},
						{
							"internalType": "string",
							"name": "messageHash",
							"type": "string"
						},
						{
							"internalType": "string",
							"name": "timestamp",
							"type": "string"
						}
					],
					"indexed": false,
					"internalType": "struct Greeter.Message",
					"name": "message",
					"type": "tuple"
				}
			],
			"name": "MessageEvent",
			"type": "event"
		},
		{
			"inputs": [
				{
					"internalType": "address",
					"name": "to",
					"type": "address"
				},
				{
					"internalType": "address",
					"name": "from",
					"type": "address"
				}
			],
			"name": "getPublicKey",
			"outputs": [
				{
					"internalType": "string",
					"name": "",
					"type": "string"
				},
				{
					"internalType": "string",
					"name": "",
					"type": "string"
				}
			],
			"stateMutability": "view",
			"type": "function"
		},
		{
			"inputs": [
				{
					"internalType": "uint256",
					"name": "",
					"type": "uint256"
				}
			],
			"name": "mails",
			"outputs": [
				{
					"internalType": "uint256",
					"name": "id",
					"type": "uint256"
				}
			],
			"stateMutability": "view",
			"type": "function"
		},
		{
			"inputs": [
				{
					"internalType": "address",
					"name": "_from",
					"type": "address"
				},
				{
					"internalType": "address",
					"name": "_to",
					"type": "address"
				},
				{
					"internalType": "string",
					"name": "_messageHash",
					"type": "string"
				},
				{
					"internalType": "uint256",
					"name": "_id",
					"type": "uint256"
				},
				{
					"internalType": "string",
					"name": "_timestamp",
					"type": "string"
				}
			],
			"name": "sendMessage",
			"outputs": [],
			"stateMutability": "nonpayable",
			"type": "function"
		},
		{
			"inputs": [
				{
					"internalType": "string",
					"name": "pubKey",
					"type": "string"
				}
			],
			"name": "setPublicKey",
			"outputs": [],
			"stateMutability": "nonpayable",
			"type": "function"
		}
	],
	"bytecode": "0x60806040523480156200001157600080fd5b506200005d6040518060400160405280600d81526020017f596f20506c656173652052756e000000000000000000000000000000000000008152506200006360201b6200090e1760201c565b620001f7565b62000103816040516024016200007a919062000170565b6040516020818303038152906040527f41304fac000000000000000000000000000000000000000000000000000000007bffffffffffffffffffffffffffffffffffffffffffffffffffffffff19166020820180517bffffffffffffffffffffffffffffffffffffffffffffffffffffffff83818316178352505050506200010660201b60201c565b50565b60008151905060006a636f6e736f6c652e6c6f679050602083016000808483855afa5050505050565b60006200013c8262000194565b6200014881856200019f565b93506200015a818560208601620001b0565b6200016581620001e6565b840191505092915050565b600060208201905081810360008301526200018c81846200012f565b905092915050565b600081519050919050565b600082825260208201905092915050565b60005b83811015620001d0578082015181840152602081019050620001b3565b83811115620001e0576000848401525b50505050565b6000601f19601f8301169050919050565b61152880620002076000396000f3fe608060405234801561001057600080fd5b506004361061004c5760003560e01c80632fdef9c31461005157806347ca183f146100815780636f6fc0771461009d578063bb859b13146100b9575b600080fd5b61006b60048036038101906100669190610d85565b6100ea565b60405161007891906111c9565b60405180910390f35b61009b60048036038101906100969190610c9d565b610108565b005b6100b760048036038101906100b29190610d44565b61066f565b005b6100d360048036038101906100ce9190610c61565b6106c6565b6040516100e19291906110fe565b60405180910390f35b60036020528060005260406000206000915090508060000154905081565b6101466040518060400160405280600381526020017f313233000000000000000000000000000000000000000000000000000000000081525061090e565b60006003600084815260200190815260200160002060010180549050146103e557600060036000848152602001908152602001600020905060006040518060a0016040528061019560006109a7565b81526020018873ffffffffffffffffffffffffffffffffffffffff1681526020018773ffffffffffffffffffffffffffffffffffffffff1681526020018681526020018481525090506102216040518060400160405280600481526020017f257320310000000000000000000000000000000000000000000000000000000081525082606001516109b5565b6102646040518060400160405280600281526020017f25640000000000000000000000000000000000000000000000000000000000008152508360000154610a51565b816001018190806001815401808255809150506001900390600052602060002090600502016000909190919091506000820151816000015560208201518160010160006101000a81548173ffffffffffffffffffffffffffffffffffffffff021916908373ffffffffffffffffffffffffffffffffffffffff16021790555060408201518160020160006101000a81548173ffffffffffffffffffffffffffffffffffffffff021916908373ffffffffffffffffffffffffffffffffffffffff1602179055506060820151816003019080519060200190610346929190610b2c565b506080820151816004019080519060200190610363929190610b2c565b5050506103706000610aed565b7f8b42ad8e7d37328181c4fb2ea0a482583cb9415bd37ff7048f067cae8d4ff6e98160405161039f91906111a7565b60405180910390a17f49b5b1fcef521b660486729cb3a16ad6f5ae6a8d2ab0d2aa911558f6550b0076826040516103d69190611185565b60405180910390a15050610668565b6000600360006103f560016109a7565b8152602001908152602001600020905060006040518060a0016040528061041c60006109a7565b81526020018873ffffffffffffffffffffffffffffffffffffffff1681526020018773ffffffffffffffffffffffffffffffffffffffff1681526020018681526020018481525090506104a86040518060400160405280600481526020017f257320320000000000000000000000000000000000000000000000000000000081525082606001516109b5565b6104eb6040518060400160405280600281526020017f25640000000000000000000000000000000000000000000000000000000000008152508360000154610a51565b816001018190806001815401808255809150506001900390600052602060002090600502016000909190919091506000820151816000015560208201518160010160006101000a81548173ffffffffffffffffffffffffffffffffffffffff021916908373ffffffffffffffffffffffffffffffffffffffff16021790555060408201518160020160006101000a81548173ffffffffffffffffffffffffffffffffffffffff021916908373ffffffffffffffffffffffffffffffffffffffff16021790555060608201518160030190805190602001906105cd929190610b2c565b5060808201518160040190805190602001906105ea929190610b2c565b5050507f8b42ad8e7d37328181c4fb2ea0a482583cb9415bd37ff7048f067cae8d4ff6e98160405161061c91906111a7565b60405180910390a17f49b5b1fcef521b660486729cb3a16ad6f5ae6a8d2ab0d2aa911558f6550b0076826040516106539190611185565b60405180910390a16106656001610aed565b50505b5050505050565b80600260003373ffffffffffffffffffffffffffffffffffffffff1673ffffffffffffffffffffffffffffffffffffffff16815260200190815260200160002090805190602001906106c2929190610b2c565b5050565b6060803373ffffffffffffffffffffffffffffffffffffffff168473ffffffffffffffffffffffffffffffffffffffff16148061072e57503373ffffffffffffffffffffffffffffffffffffffff168373ffffffffffffffffffffffffffffffffffffffff16145b61076d576040517f08c379a000000000000000000000000000000000000000000000000000000000815260040161076490611165565b60405180910390fd5b600260008573ffffffffffffffffffffffffffffffffffffffff1673ffffffffffffffffffffffffffffffffffffffff168152602001908152602001600020600260008573ffffffffffffffffffffffffffffffffffffffff1673ffffffffffffffffffffffffffffffffffffffff1681526020019081526020016000208180546107f790611362565b80601f016020809104026020016040519081016040528092919081815260200182805461082390611362565b80156108705780601f1061084557610100808354040283529160200191610870565b820191906000526020600020905b81548152906001019060200180831161085357829003601f168201915b5050505050915080805461088390611362565b80601f01602080910402602001604051908101604052809291908181526020018280546108af90611362565b80156108fc5780601f106108d1576101008083540402835291602001916108fc565b820191906000526020600020905b8154815290600101906020018083116108df57829003601f168201915b50505050509050915091509250929050565b6109a48160405160240161092291906110dc565b6040516020818303038152906040527f41304fac000000000000000000000000000000000000000000000000000000007bffffffffffffffffffffffffffffffffffffffffffffffffffffffff19166020820180517bffffffffffffffffffffffffffffffffffffffffffffffffffffffff8381831617835250505050610b03565b50565b600081600001549050919050565b610a4d82826040516024016109cb9291906110fe565b6040516020818303038152906040527f4b5c4277000000000000000000000000000000000000000000000000000000007bffffffffffffffffffffffffffffffffffffffffffffffffffffffff19166020820180517bffffffffffffffffffffffffffffffffffffffffffffffffffffffff8381831617835250505050610b03565b5050565b610ae98282604051602401610a67929190611135565b6040516020818303038152906040527f9710a9d0000000000000000000000000000000000000000000000000000000007bffffffffffffffffffffffffffffffffffffffffffffffffffffffff19166020820180517bffffffffffffffffffffffffffffffffffffffffffffffffffffffff8381831617835250505050610b03565b5050565b6001816000016000828254019250508190555050565b60008151905060006a636f6e736f6c652e6c6f679050602083016000808483855afa5050505050565b828054610b3890611362565b90600052602060002090601f016020900481019282610b5a5760008555610ba1565b82601f10610b7357805160ff1916838001178555610ba1565b82800160010185558215610ba1579182015b82811115610ba0578251825591602001919060010190610b85565b5b509050610bae9190610bb2565b5090565b5b80821115610bcb576000816000905550600101610bb3565b5090565b6000610be2610bdd84611209565b6111e4565b905082815260208101848484011115610bfa57600080fd5b610c05848285611320565b509392505050565b600081359050610c1c816114c4565b92915050565b600082601f830112610c3357600080fd5b8135610c43848260208601610bcf565b91505092915050565b600081359050610c5b816114db565b92915050565b60008060408385031215610c7457600080fd5b6000610c8285828601610c0d565b9250506020610c9385828601610c0d565b9150509250929050565b600080600080600060a08688031215610cb557600080fd5b6000610cc388828901610c0d565b9550506020610cd488828901610c0d565b945050604086013567ffffffffffffffff811115610cf157600080fd5b610cfd88828901610c22565b9350506060610d0e88828901610c4c565b925050608086013567ffffffffffffffff811115610d2b57600080fd5b610d3788828901610c22565b9150509295509295909350565b600060208284031215610d5657600080fd5b600082013567ffffffffffffffff811115610d7057600080fd5b610d7c84828501610c22565b91505092915050565b600060208284031215610d9757600080fd5b6000610da584828501610c4c565b91505092915050565b6000610dba8383611020565b905092915050565b610dcb816112e4565b82525050565b6000610ddc82611264565b610de68185611287565b935083602082028501610df88561123a565b8060005b85811015610e3357848403895281610e148582610dae565b9450610e1f8361127a565b925060208a01995050600181019050610dfc565b50829750879550505050505092915050565b6000610e508261126f565b610e5a8185611298565b9350610e6a81856020860161132f565b610e7381611457565b840191505092915050565b6000610e898261126f565b610e9381856112a9565b9350610ea381856020860161132f565b610eac81611457565b840191505092915050565b60008154610ec481611362565b610ece8186611298565b94506001821660008114610ee95760018114610efb57610f2e565b60ff1983168652602086019350610f2e565b610f048561124f565b60005b83811015610f2657815481890152600182019150602081019050610f07565b808801955050505b50505092915050565b6000610f446030836112a9565b9150610f4f82611475565b604082019050919050565b6000604083016000808401549050610f71816113ae565b610f7e60008701826110be565b50600184018583036020870152610f958382610dd1565b925050819250505092915050565b600060a083016000830151610fbb60008601826110be565b506020830151610fce6020860182610dc2565b506040830151610fe16040860182610dc2565b5060608301518482036060860152610ff98282610e45565b915050608083015184820360808601526110138282610e45565b9150508091505092915050565b600060a083016000808401549050611037816113ae565b61104460008701826110be565b506001840154905061105581611394565b6110626020870182610dc2565b506002840154905061107381611394565b6110806040870182610dc2565b506003840185830360608701526110978382610eb7565b9250506004840185830360808701526110b08382610eb7565b925050819250505092915050565b6110c781611316565b82525050565b6110d681611316565b82525050565b600060208201905081810360008301526110f68184610e7e565b905092915050565b600060408201905081810360008301526111188185610e7e565b9050818103602083015261112c8184610e7e565b90509392505050565b6000604082019050818103600083015261114f8185610e7e565b905061115e60208301846110cd565b9392505050565b6000602082019050818103600083015261117e81610f37565b9050919050565b6000602082019050818103600083015261119f8184610f5a565b905092915050565b600060208201905081810360008301526111c18184610fa3565b905092915050565b60006020820190506111de60008301846110cd565b92915050565b60006111ee6111ff565b90506111fa82826113c8565b919050565b6000604051905090565b600067ffffffffffffffff82111561122457611223611428565b5b61122d82611457565b9050602081019050919050565b60008190508160005260206000209050919050565b60008190508160005260206000209050919050565b600081549050919050565b600081519050919050565b6000600582019050919050565b600082825260208201905092915050565b600082825260208201905092915050565b600082825260208201905092915050565b600073ffffffffffffffffffffffffffffffffffffffff82169050919050565b6000819050919050565b60006112ef826112f6565b9050919050565b600073ffffffffffffffffffffffffffffffffffffffff82169050919050565b6000819050919050565b82818337600083830152505050565b60005b8381101561134d578082015181840152602081019050611332565b8381111561135c576000848401525b50505050565b6000600282049050600182168061137a57607f821691505b6020821081141561138e5761138d6113f9565b5b50919050565b60006113a76113a283611468565b6112ba565b9050919050565b60006113c16113bc83611468565b6112da565b9050919050565b6113d182611457565b810181811067ffffffffffffffff821117156113f0576113ef611428565b5b80604052505050565b7f4e487b7100000000000000000000000000000000000000000000000000000000600052602260045260246000fd5b7f4e487b7100000000000000000000000000000000000000000000000000000000600052604160045260246000fd5b6000601f19601f8301169050919050565b60008160001c9050919050565b7f4f6868204f6b617920796f7572206163636f756e74206973206e6f7420616c6c60008201527f6f77656420616363657373207468697300000000000000000000000000000000602082015250565b6114cd816112e4565b81146114d857600080fd5b50565b6114e481611316565b81146114ef57600080fd5b5056fea26469706673582212207e900dcf090fcd541993a28446cf83f2545be02dce171394c88afeb9fb3884fd64736f6c63430008040033",
	"linkReferences": {},
	"deployedLinkReferences": {}
}