{
	"_format": "hh-sol-artifact-1",
	"contractName": "Greeter",
	"sourceName": "contracts/Mail.sol",
	"abi": [
		{
			"inputs": [],
			"stateMutability": "nonpayable",
			"type": "constructor"
		},
		{
			"anonymous": false,
			"inputs": [
				{
					"indexed": false,
					"internalType": "uint256",
					"name": "id",
					"type": "uint256"
				},
				{
					"indexed": false,
					"internalType": "uint256",
					"name": "mailId",
					"type": "uint256"
				},
				{
					"indexed": false,
					"internalType": "address",
					"name": "from",
					"type": "address"
				},
				{
					"indexed": false,
					"internalType": "address",
					"name": "to",
					"type": "address"
				},
				{
					"indexed": false,
					"internalType": "string",
					"name": "messageHash",
					"type": "string"
				},
				{
					"indexed": false,
					"internalType": "string",
					"name": "timestamp",
					"type": "string"
				}
			],
			"name": "MessageEvent",
			"type": "event"
		},
		{
			"inputs": [
				{
					"internalType": "uint256",
					"name": "id",
					"type": "uint256"
				}
			],
			"name": "allMails",
			"outputs": [
				{
					"components": [
						{
							"internalType": "uint256",
							"name": "id",
							"type": "uint256"
						},
						{
							"internalType": "uint256",
							"name": "mailId",
							"type": "uint256"
						},
						{
							"internalType": "address",
							"name": "from",
							"type": "address"
						},
						{
							"internalType": "address",
							"name": "to",
							"type": "address"
						},
						{
							"internalType": "string",
							"name": "messageHash",
							"type": "string"
						},
						{
							"internalType": "string",
							"name": "timestamp",
							"type": "string"
						}
					],
					"internalType": "struct Greeter.Message[]",
					"name": "",
					"type": "tuple[]"
				}
			],
			"stateMutability": "view",
			"type": "function"
		},
		{
			"inputs": [
				{
					"internalType": "address",
					"name": "to",
					"type": "address"
				},
				{
					"internalType": "address",
					"name": "from",
					"type": "address"
				}
			],
			"name": "getPublicKey",
			"outputs": [
				{
					"internalType": "string",
					"name": "",
					"type": "string"
				},
				{
					"internalType": "string",
					"name": "",
					"type": "string"
				}
			],
			"stateMutability": "view",
			"type": "function"
		},
		{
			"inputs": [
				{
					"internalType": "uint256",
					"name": "",
					"type": "uint256"
				}
			],
			"name": "mails",
			"outputs": [
				{
					"internalType": "uint256",
					"name": "id",
					"type": "uint256"
				}
			],
			"stateMutability": "view",
			"type": "function"
		},
		{
			"inputs": [
				{
					"internalType": "address",
					"name": "_from",
					"type": "address"
				},
				{
					"internalType": "address",
					"name": "_to",
					"type": "address"
				},
				{
					"internalType": "string",
					"name": "_messageHash",
					"type": "string"
				},
				{
					"internalType": "uint256",
					"name": "_id",
					"type": "uint256"
				},
				{
					"internalType": "string",
					"name": "_timestamp",
					"type": "string"
				}
			],
			"name": "sendMessage",
			"outputs": [],
			"stateMutability": "nonpayable",
			"type": "function"
		},
		{
			"inputs": [
				{
					"internalType": "string",
					"name": "pubKey",
					"type": "string"
				}
			],
			"name": "setPublicKey",
			"outputs": [],
			"stateMutability": "nonpayable",
			"type": "function"
		}
	],
	"bytecode": "0x608060405234801561001057600080fd5b506112b4806100206000396000f3fe608060405234801561001057600080fd5b50600436106100575760003560e01c80632fdef9c31461005c578063426716eb1461008c57806347ca183f146100bc5780636f6fc077146100d8578063bb859b13146100f4575b600080fd5b61007660048036038101906100719190610cdf565b610125565b6040516100839190610f6b565b60405180910390f35b6100a660048036038101906100a19190610cdf565b610143565b6040516100b39190610ef2565b60405180910390f35b6100d660048036038101906100d19190610bf7565b61039c565b005b6100f260048036038101906100ed9190610c9e565b6107c3565b005b61010e60048036038101906101099190610bbb565b61081a565b60405161011c929190610f14565b60405180910390f35b60036020528060005260406000206000915090508060000154905081565b606060036000838152602001908152602001600020600101805480602002602001604051908101604052809291908181526020016000905b8282101561039157838290600052602060002090600602016040518060c001604052908160008201548152602001600182015481526020016002820160009054906101000a900473ffffffffffffffffffffffffffffffffffffffff1673ffffffffffffffffffffffffffffffffffffffff1673ffffffffffffffffffffffffffffffffffffffff1681526020016003820160009054906101000a900473ffffffffffffffffffffffffffffffffffffffff1673ffffffffffffffffffffffffffffffffffffffff1673ffffffffffffffffffffffffffffffffffffffff16815260200160048201805461026e9061112f565b80601f016020809104026020016040519081016040528092919081815260200182805461029a9061112f565b80156102e75780601f106102bc576101008083540402835291602001916102e7565b820191906000526020600020905b8154815290600101906020018083116102ca57829003601f168201915b505050505081526020016005820180546103009061112f565b80601f016020809104026020016040519081016040528092919081815260200182805461032c9061112f565b80156103795780601f1061034e57610100808354040283529160200191610379565b820191906000526020600020905b81548152906001019060200180831161035c57829003601f168201915b5050505050815250508152602001906001019061017b565b505050509050919050565b60006003600084815260200190815260200160002060010180549050146105ac57600060036000848152602001908152602001600020905060006040518060c001604052806103eb6000610a62565b81526020018581526020018873ffffffffffffffffffffffffffffffffffffffff1681526020018773ffffffffffffffffffffffffffffffffffffffff16815260200186815260200184815250905081600101819080600181540180825580915050600190039060005260206000209060060201600090919091909150600082015181600001556020820151816001015560408201518160020160006101000a81548173ffffffffffffffffffffffffffffffffffffffff021916908373ffffffffffffffffffffffffffffffffffffffff16021790555060608201518160030160006101000a81548173ffffffffffffffffffffffffffffffffffffffff021916908373ffffffffffffffffffffffffffffffffffffffff1602179055506080820151816004019080519060200190610526929190610a86565b5060a0820151816005019080519060200190610543929190610a86565b5050506105506000610a70565b7f2174ada12bfa4c75ffd5f2028592e875c7f2d1baeae1f84f0bb50c2fafcf83628160000151858360400151846060015185608001518660a0015160405161059d96959493929190610f86565b60405180910390a150506107bc565b6000600360006105bc6001610a62565b8152602001908152602001600020905060006040518060c001604052806105e36000610a62565b81526020016105f26001610a62565b81526020018873ffffffffffffffffffffffffffffffffffffffff1681526020018773ffffffffffffffffffffffffffffffffffffffff16815260200186815260200184815250905081600101819080600181540180825580915050600190039060005260206000209060060201600090919091909150600082015181600001556020820151816001015560408201518160020160006101000a81548173ffffffffffffffffffffffffffffffffffffffff021916908373ffffffffffffffffffffffffffffffffffffffff16021790555060608201518160030160006101000a81548173ffffffffffffffffffffffffffffffffffffffff021916908373ffffffffffffffffffffffffffffffffffffffff1602179055506080820151816004019080519060200190610727929190610a86565b5060a0820151816005019080519060200190610744929190610a86565b5050507f2174ada12bfa4c75ffd5f2028592e875c7f2d1baeae1f84f0bb50c2fafcf836281600001516107776001610a62565b8360400151846060015185608001518660a0015160405161079d96959493929190610f86565b60405180910390a16107af6001610a70565b6107b96000610a70565b50505b5050505050565b80600260003373ffffffffffffffffffffffffffffffffffffffff1673ffffffffffffffffffffffffffffffffffffffff1681526020019081526020016000209080519060200190610816929190610a86565b5050565b6060803373ffffffffffffffffffffffffffffffffffffffff168473ffffffffffffffffffffffffffffffffffffffff16148061088257503373ffffffffffffffffffffffffffffffffffffffff168373ffffffffffffffffffffffffffffffffffffffff16145b6108c1576040517f08c379a00000000000000000000000000000000000000000000000000000000081526004016108b890610f4b565b60405180910390fd5b600260008573ffffffffffffffffffffffffffffffffffffffff1673ffffffffffffffffffffffffffffffffffffffff168152602001908152602001600020600260008573ffffffffffffffffffffffffffffffffffffffff1673ffffffffffffffffffffffffffffffffffffffff16815260200190815260200160002081805461094b9061112f565b80601f01602080910402602001604051908101604052809291908181526020018280546109779061112f565b80156109c45780601f10610999576101008083540402835291602001916109c4565b820191906000526020600020905b8154815290600101906020018083116109a757829003601f168201915b505050505091508080546109d79061112f565b80601f0160208091040260200160405190810160405280929190818152602001828054610a039061112f565b8015610a505780601f10610a2557610100808354040283529160200191610a50565b820191906000526020600020905b815481529060010190602001808311610a3357829003601f168201915b50505050509050915091509250929050565b600081600001549050919050565b6001816000016000828254019250508190555050565b828054610a929061112f565b90600052602060002090601f016020900481019282610ab45760008555610afb565b82601f10610acd57805160ff1916838001178555610afb565b82800160010185558215610afb579182015b82811115610afa578251825591602001919060010190610adf565b5b509050610b089190610b0c565b5090565b5b80821115610b25576000816000905550600101610b0d565b5090565b6000610b3c610b378461101a565b610ff5565b905082815260208101848484011115610b5457600080fd5b610b5f8482856110ed565b509392505050565b600081359050610b7681611250565b92915050565b600082601f830112610b8d57600080fd5b8135610b9d848260208601610b29565b91505092915050565b600081359050610bb581611267565b92915050565b60008060408385031215610bce57600080fd5b6000610bdc85828601610b67565b9250506020610bed85828601610b67565b9150509250929050565b600080600080600060a08688031215610c0f57600080fd5b6000610c1d88828901610b67565b9550506020610c2e88828901610b67565b945050604086013567ffffffffffffffff811115610c4b57600080fd5b610c5788828901610b7c565b9350506060610c6888828901610ba6565b925050608086013567ffffffffffffffff811115610c8557600080fd5b610c9188828901610b7c565b9150509295509295909350565b600060208284031215610cb057600080fd5b600082013567ffffffffffffffff811115610cca57600080fd5b610cd684828501610b7c565b91505092915050565b600060208284031215610cf157600080fd5b6000610cff84828501610ba6565b91505092915050565b6000610d148383610e44565b905092915050565b610d25816110b1565b82525050565b610d34816110b1565b82525050565b6000610d458261105b565b610d4f818561107e565b935083602082028501610d618561104b565b8060005b85811015610d9d5784840389528151610d7e8582610d08565b9450610d8983611071565b925060208a01995050600181019050610d65565b50829750879550505050505092915050565b6000610dba82611066565b610dc4818561108f565b9350610dd48185602086016110fc565b610ddd816111f0565b840191505092915050565b6000610df382611066565b610dfd81856110a0565b9350610e0d8185602086016110fc565b610e16816111f0565b840191505092915050565b6000610e2e6030836110a0565b9150610e3982611201565b604082019050919050565b600060c083016000830151610e5c6000860182610ed4565b506020830151610e6f6020860182610ed4565b506040830151610e826040860182610d1c565b506060830151610e956060860182610d1c565b5060808301518482036080860152610ead8282610daf565b91505060a083015184820360a0860152610ec78282610daf565b9150508091505092915050565b610edd816110e3565b82525050565b610eec816110e3565b82525050565b60006020820190508181036000830152610f0c8184610d3a565b905092915050565b60006040820190508181036000830152610f2e8185610de8565b90508181036020830152610f428184610de8565b90509392505050565b60006020820190508181036000830152610f6481610e21565b9050919050565b6000602082019050610f806000830184610ee3565b92915050565b600060c082019050610f9b6000830189610ee3565b610fa86020830188610ee3565b610fb56040830187610d2b565b610fc26060830186610d2b565b8181036080830152610fd48185610de8565b905081810360a0830152610fe88184610de8565b9050979650505050505050565b6000610fff611010565b905061100b8282611161565b919050565b6000604051905090565b600067ffffffffffffffff821115611035576110346111c1565b5b61103e826111f0565b9050602081019050919050565b6000819050602082019050919050565b600081519050919050565b600081519050919050565b6000602082019050919050565b600082825260208201905092915050565b600082825260208201905092915050565b600082825260208201905092915050565b60006110bc826110c3565b9050919050565b600073ffffffffffffffffffffffffffffffffffffffff82169050919050565b6000819050919050565b82818337600083830152505050565b60005b8381101561111a5780820151818401526020810190506110ff565b83811115611129576000848401525b50505050565b6000600282049050600182168061114757607f821691505b6020821081141561115b5761115a611192565b5b50919050565b61116a826111f0565b810181811067ffffffffffffffff82111715611189576111886111c1565b5b80604052505050565b7f4e487b7100000000000000000000000000000000000000000000000000000000600052602260045260246000fd5b7f4e487b7100000000000000000000000000000000000000000000000000000000600052604160045260246000fd5b6000601f19601f8301169050919050565b7f4f6868204f6b617920796f7572206163636f756e74206973206e6f7420616c6c60008201527f6f77656420616363657373207468697300000000000000000000000000000000602082015250565b611259816110b1565b811461126457600080fd5b50565b611270816110e3565b811461127b57600080fd5b5056fea2646970667358221220bb9e27c39febc58701ca272f89aad7f988b3498fe7e1efb77dcc99b9eaa94d0b64736f6c63430008040033",
	"linkReferences": {},
	"deployedLinkReferences": {}
}